S00B00004B4853322E733337D1
S214000000B8100020110300007701000077010000FF
S2140000107701000077010000770100000000000073
S2140000200000000000000000000000007701000053
S2140000307701000000000000770100007701000053
S214000040DFF800F069000020DFF800F0270000204D
S214000050F8B5044625464FF0FF3080260146FF20BF
S21400006000F08AF8761EF9D180344FF4F06600F07E
S21400007022F8761EFBD14435A9884E1C06E04FF4C4
S214000080006700F018F87F1EFBD1761CA988090AC5
S214000090F6B2B142F3DA4FF420540146FF2000F0E6
S2140000A06BF8641EF9D12968C043814201D1012052
S2140000B0F2BD0020F2BD014614F8010B00F05CB85A
S2140000C0F8B504460D46164610E02846FFF7B8FF7A
S2140000D03746B7F5006F88BF4FF4006722463946AB
S2140000E02846FFF7B1FF3D443C44F61B012EECDAF0
S2140000F0F1BD000038B51D48016841F020010160DF
S2140001004FF4904440F6A72204F110000188914273
S2140001101AD1018F080AC50201F0FF00C002B0F52F
S214000120804F11D12046FFF793FF48B14FF400608F
S2140001302844A0F580424FF480412046FFF7C0FFD8
S2140001402046FFF77DFF05E04FF400600444B4F559
S214000150802FD9D34FF48040054A41691160016869
S2140001608D464068BDE8324000470000B0400E4073
S21400017008ED00E0BEE7FEE70A0A484000F0FF0090
S21400018008214308C00746BF034858401846491E82
S214000190F7D15040704700002083B8ED264A5060E3
S2140001A001201060D160082010601069C007FCD4E0
S2140001B07047F8B5214C0546206840F001000E4611
S2140001C01746206005E057F8041BFFF7E7FF2D1DD4
S2140001D0361F042E2846F6D23EB139684FF0FF325D
S2140001E0F3009A401143FFF7D9FF2068400840000B
S2140001F02060F1BD10B5114A136843F00103136087
S2140002004FF0FF31034602E053F8044B214000F55F
S2140002100064A342F8D311F1010F07D090600120CB
S2140002205060022050605069C007FCD41068400837
S2140002304000106010BD00000C000E4008000E408C
S21400024010B450F8041B79B10268436802440830C1
S214000250DC0744BFA9F10104E31852F8044B43F845
S214000260044B091FF9D1ECE710BC704710B50749DD
S21400027079441831064C7C44163404E00A68081D9C
S214000280114488470146A142F8D110BD2C00000059
S2140002903C0000004EF68851CEF20001086840F49B
S2140002A070000860BFF34F8FBFF36F8F4FF0007082
S2140002B0E1EE100A7047000089FFFFFFA40000006F
S2140002C0DCFEFFFF100000200000000000F00BF82E
S2140002D0002801D0FFF7CAFF0020AFF30080FFF729
S2140002E049FF00F002F80120704700F001B8000056
S2140002F00746384600F002F8FBE7000080B5AFF38B
S2140003000080024A11001820ABBEFBE72600020060
S214000310AFF30080FFF7BEFFFFF7D8FF0000000036
S21400032000000000000000000000000000000000C8
S21400033000000000000000000000000000000000B8
S21400034000000000000000000000000000000000A8
S2140003500000000000000000000000000000000098
S2140040000045002025130200F77B00004F800000CB
S214004010A70A000100410000000000800000000028
S214004020C335E1AC00000000000000000000000006
S214004030000000000000000000000000000000007B
S21400404000000000206D73B10000000000000000BA
S21400405000000000FFFFFFFF00000000000000005F
S214004060000000000000000000000000000000004B
S214004070000000000000000000000000000000003B
S214004080000000000000000000000000000000002B
S214004090000000000000000000000000000000001B
S2140040A0000000000000000000000000000000000B
S2140040B000000000000000000000000000000000FB
S2140040C000000000000000000000000000000000EB
S2140040D000000000000000000000000000000000DB
S2140040E000000000000000000000000000000000CB
S2140040F000000000000000000000000000000000BB
S2140041000045002025130200F77B00004F800000CA
S2140041101F81000097810000478A00000000000011
S2140041200000000000000000000000000B8B0000F4
S214004130DF9600000000000023AE0000E7B000009D
S214004140CDB00100F5DE0100C7BF000029DB01008D
S21400415039DF0100FBDE0100FDDE0100F7DE0100B5
S2140041607BC9000037D400001F0B01005B0B010069
S214004170530C0100FB360100635601001B7F010053
S2140041802F8D01001F960100239A01002FA4010025
S2140041900BB50100D3C9010093CC0100BF0002009B
S2140041A0DF00020023060200871002003BDF01004A
S2140041B0F9DE01003F1302006FDF01004113020029
S2140041C07B00020043130200000000000000000015
S2140041D000000000000000000000000000000000DA
S2140041E000000000000000000000000000000000CA
S2140041F000000000000000000000000000000000BA
S214004200029852030298580302985E060298040227
S2140042100298700302987E03029870030298F403D3
S2140042200298DE04029804050298A2050298B005DA
S21400423002981606029848060763076390B96379E2
S21400424001DB067102981403076300B902EC00CD87
S214004250114502EC00CC411103B804D91E72073197
S214004260911210DA087102DD12721E7002B8076031
S2140042700698C40E3038127208B806983C0D00C076
S21400428024000840207800F802EC00CA05B823DABB
S214004290EA7202EC00C8911110D91A7100C11C0F05
S2140042A00021141111500E713111076908D90672D8
S2140042B00AB8C87007689111173111402111C03132
S2140042C01140011990B8411108D90471627820D9BB
S2140042D004726578273123DD0872C0DA04716078CD
S2140042E003B8411107310872A11520358E7102DD21
S2140042F01672A11120D98471CCDA807206B8054DE9
S214004300B2720298140321114049C0D93471A03109
S2140043104115403501655141036108DA167204DA29
S2140043202072104901340C71076B80DB147190B851
S214004330677800C00D0F0C0D0698C60E01D80872DF
S21400434007B802987A00CC32204A00C005170850F9
S2140043500698C60E113001420DDA6671208800C13B
S214004360DE1B250120BB04DA107208DA0A7200C1CF
S21400437020841000F823E8233114056B01DA067157
S2140043801E49024B076B076B00C06C0F00213810EC
S214004390BC2002DA127100B9FF21A11380DB08717C
S2140043A000C100FCFF01181002989C0200C3140F05
S2140043B00021341080D84671EFBA06986A0C009235
S2140043C00362DDDA9472A11101D9327100C238108D
S2140043D0084024120423281302EC00C804D91671DE
S2140043E004BA183008710060FD20012A02EC00C8EB
S2140043F0FF22FA7604DC067218B8737890B8437811
S2140044000298140306983C0800B8011A9110173059
S214004410011900C2020200000698FA0604D90671C5
S21400442001B802A800C0140F0021041380DB067137
S2140044300298380001DB5C7100C2740F0021241161
S2140044401114FF3402EC00C8FF24FA7607610698C0
S214004450D40E03611138036111140111411006983E
S214004460D40E01D8087203B802987A00042202DB40
S21400447016712410112811280698E80E00C218009C
S2140044800840FF200812411007600698D40E01D895
S214004490087120BC10DB06720298140300BB00C132
S2140044A06C0F00211415511207620762C021112CEF
S2140044B0FF320E714088511406981E034143009443
S2140044C041115112076AFF320E71511407640698A3
S2140044D01E03076C414300C1700F00211410013BFE
S2140044E0B8211411111231100F30127100BA046184
S2140044F001D80471114200600FD8F47231100660C2
S2140045001E30047201B8003A087204B802987A00A5
S2140045100298AC010698680C00B8477800F8308816
S2140045205088FF34087102ECFF24F87002EC00CDCE
S214004530141001BB5150FFD8047131440760006B62
S21400454010DBF2710421FF22E4720F4C00950093F9
S21400455000A006983C0800F806983C0800C5900F96
S214004560002154150698D20900C5940F002100F8C2
S21400457006983C080698D80B0698320B00F8069862
S2140045803C0810B902BA0698FC0600C5940F002134
S21400459000F89112033288B903DE40727179A110D7
S2140045A020D808710698D2095C7000C3140F002149
S2140045B0341380DB1A7100C3A8100840A11410340D
S2140045C0024C481300BC48139114076448138CBB74
S2140045D0627B40D80671517900BA076A00C0A00015
S2140045E008400698E8030420087809780411214159
S2140045F0181000A006983C0800BD06987E0910B961
S21400460003DC047100B902BA0698FC0604D90671E8
S21400461000404072811008D8107106987E0903DCAD
S21400462008720698420726700698AA04FFD80C72ED
S21400463088B8477800B844784470911010D80E7146
S21400464000BB00C46C50084006982A0720B802A891
S21400465000F800C0140F0021041320DB2071911015
S21400466010D80E710760FFD808728CB84478967020
S21400467008DB9272A11328DB8C7203BD06989E0499
S2140046800698D80B00C5980F002106987E0903DC13
S2140046900472042554150698500A0298500D91107D
S2140046A0015503355150011900A001B8811180D978
S2140046B02C7100C10C500840141004302072642184
S2140046C01412EC211410014A076203608030215056
S2140046D08C480A717F21C9211410013000A0069869
S2140046E03C080698D80B00BD06989E0488B8477804
S2140046F000B8447800C5A00F002154150698500A4B
S2140047000298500D06983C0800C4B40F00214414CB
S2140047101DB3315B302C20750698200800C0600061
S21400472008400410016801D80E7100C064000840FB
S214004730237808B865780698AA04FFD8067208B8E1
S214004740607800C2000002020698FA0600F800B977
S21400475000C09C10084018101C200AB9181000C28F
S214004760600008402410911188BB0D302C7108227F
S2140047700812FC2204D9147204D804716A7B08D883
S21400478004716C7B2F7A487B107004D804716D7BA3
S21400479008D804716F7B217A507B517B8CB84278A5
S2140047A000A006983C0806984E050698320B00F8BE
S2140047B006983C0806987E0907DC0A7200C5940F26
S2140047C0002100F80698320B01B9911004D8047144
S2140047D000B900C2000002000698FC0600402071E6
S2140047E000C0140F0021041120D91471076101D9EB
S2140047F0E0728110076001D8D8728CB86478069889
S2140048004E0500C5A40F002154150698D20900C510
S214004810A80F002100F806983C08811108D90C71F1
S2140048200698420720B802A800F806984E0500BD74
S21400483006989E0488B8477800B8447800C5AC0F40
S214004840002154150298500D06983C0806986A0EEA
S2140048500698D80B0698320B06984E0500F8B1104D
S214004860076001D80A7108B87F78020C7E7806982F
S2140048703C0801F8911010D8367100C590500840D9
S2140048805411A0255412E82554151159112D0676F9
S2140048900122212D00C1200F00211411112DDC75DD
S2140048A018B875788CB8447801B802A800F8B1102A
S2140048B0076810D8307100C04810084000C30000D8
S2140048C0084031146024282444113411076101D9AA
S2140048D0FA7144122810076228100762281007622F
S2140048E02810E8700298FC0B88BA727A811204DAF3
S2140048F0FC7200A088BA527A00A00C700698A20932
S21400490011380472076A00BB00C1240F002100C4DE
S214004910B4500840141120391272417B007CB82430
S21400492000C200000101281400A00698E80600C294
S214004930140F0021241240DA0672617B007C029874
S214004940F40688B86B7800C0640008402F7800A092
S214004950B11001D8047200A000C0287008400411ED
S214004960108800C100180040181044200411108858
S214004970A820041110884CBA757A18103DB110881A
S214004980F4B8427844207278D8207378E820737898
S2140049904FB200C4FFFF8080413A4FAA01BC0164B9
S2140049A04113076300C06C70084003B9181001106B
S2140049B0011001B918100110011001100110982003
S2140049C00411076101B80160003A0471044904D972
S2140049D0047241520760003A0471084908D904720B
S2140049E031520460003B0E72006300643142414263
S2140049F04FAAB2704FAA44B801685378F8B85378F3
S214004A004020527800913DA9009100C014700840E3
S214004A1018100091582018100091BC20181000A003
S214004A204024066400C0FFFF0000013C1DB00220C9
S214004A300158402806751EAC01EC00A0009000C688
S214004A40B80F0021008801B0076800C47C0F002161
S214004A504413036B31500F30315008140F3003638A
S214004A600F330111C04806988C090698F4060C24EA
S214004A7003DD167214BA281400C268000840B8B9DC
S214004A8000690149181200A009DDEE7100BA03DFC3
S214004A901E71004B06722814311953B080BB006B90
S214004AA030380A7109DD06710298800C00A04413A4
S214004AB0281441150698A2090060B83000C4E0101A
S214004AC0084044120762013221400824287CF82559
S214004AD05412F03240DE0472404804DB08720DDDEA
S214004AE00C72044BEF301448069878080088811141
S214004AF040D91E72B1123032CF4A2138B1D8127264
S214004B0008D8067104D80A719C24D424237C3470F7
S214004B1098244412FF32C322047580B8D82481D862
S214004B20247140D90472237C084B04BA80DC0671D9
S214004B3080D8147206B904A901D80C7264242824FB
S214004B40307C287000BAE024441140241814076111
S214004B50181491113031114200C100600840141140
S214004B6010D90471404A281408140090308802486E
S214004B7006988C0C009308DB047100F800A000C0B7
S214004B807C0F0021041003600F3000A01088B111C4
S214004B90076980D90A7100C1800008400811009199
S214004BA000A000C460000840441000A000C02030F0
S214004BB00E40041104101050F47200A000C02840EB
S214004BC00E400413315107610C3107691153381038
S214004BD000A006983C0B00C0F80F002104112EA977
S214004BE0217A227A0698700A0111FF300769FF3190
S214004BF051B30DBC415C413B115900290475084B6B
S214004C0051ABA4BB00C040300E4004110331014933
S214004C102872B112076207623020041121510F3149
S214004C2018726E7B6F7BF02004114CBA7C7A1810D9
S214004C3014200411607A1810B11002D81071707B1D
S214004C4030B8627860780DB001D8FC7102986E0BAF
S214004C5006983C0B00C0FC0F002104112EA9F8207A
S214004C6004110698BC09217A237A0698700A00A0D7
S214004C70511400C0B00F00210410012C0A7500B8B2
S214004C8026A80698200828B010B9115911380EB970
S214004C90114028A880B800C14430084008116FB8F9
S214004CA0076826A8217A050C21102020267800C047
S214004CB063EF000026A8050C20EC247A20EC217A6D
S214004CC0184826A828B00AB901510F31115028A853
S214004CD0050C207A20EC0F0C98B846784178B11075
S214004CE080D83A7100C04C3008407DB918100D0EBF
S214004CF00D0E00C0703008400411303112710820CB
S214004D0025782478960CF82004113031F272DC20D5
S214004D1000C106000000181000B918100698AC096B
S214004D2000C28C0F002124100151FF3111500812CF
S214004D3000A006983C0B00B826A800A030B8407823
S214004D400DB101D9FC72427800C074300E400411D7
S214004D504CBA407A1810EC2004115C7A1810A4BBE8
S214004D60707B4E7B4F7B00C20430084000A008B822
S214004D706E780EB84EB110D90C723EA8140C0FB84F
S214004D803EA8107044A8140C01B800C1B0300E4004
S214004D90081100C077801F003DB201423DAA00C145
S214004DA0E40F0021141054A8140C00C077E01F0074
S214004DB001423DAA51B801687D7808B87E78069809
S214004DC0E806069850070698F40651140698200838
S214004DD0F4B845780A0C00A051B801685D7800B8B0
S214004DE044A83EA800C1B0300E40081110B80768AD
S214004DF03DB101393DA908B86F7800A001F85410FC
S214004E0000DC127101140698200818B8707800B8F3
S214004E10417800F80298180C00C58C0F0021541534
S214004E205114FF3507644113FF3407633112FF3313
S214004E300762FF323110212B0158012A0698AC096F
S214004E4001585128047501584128187551B00CD8DE
S214004E500671215806703110115901290675FF0F89
S214004E60B87018B8727800F8EBBA00C0880F002146
S214004E700411113A10D9067118B97479281000A0D7
S214004E8006986A0E11510698BC0900B8B111076958
S214004E9040D9067202983A0D00BC08D94071202409
S214004EA000C140600840111200DC0C71C0222412C0
S214004EB010DA10710C70DC222412076204DA047116
S214004EC00421141200C180000840320C2811076229
S214004ED0281107622811076228114B0C00C1800FA9
S214004EE00021141200DC1C7120D8087101B8069845
S214004EF0440DF0DA0C720CDB087102B80698440D0B
S214004F00482400C380000840FFB801200421141183
S214004F1011410871014118130824014200C13830BC
S214004F2008401411014100C00060084004103030F1
S214004F300168014118132813481300B800C1800FF8
S214004F400021141203682150F0300152281100A0ED
S214004F5064BC066C415C512C069820085088069864
S214004F6092030095B110076820D8207108B86578BC
S214004F70911004D808720698420700F888B86E7830
S214004F8000C064000840217800F808B86C7820B8A3
S214004F905A7859785B7800C1E80F0021141054A89D
S214004FA04EB010D806710298FC0D4DB100C09FFFA0
S214004FB0FFFF113840B102D91472604800C10400E6
S214004FC000401112104A04BB41540C70204802B92C
S214004FD003BA02BB02BC4DA840A9F8B87078190CF9
S214004FE03EB141413EA9F4B973797378717800C136
S214004FF0E00F002100C400410840287000C20000F5
S214005000010044AA230C00C200000B0044AA00C101
S214005010E00F002100C22000004000C418410840F4
S21400502004BB00C0C83F000014111138214008140A
S214005030050C1140081404240F0C2FAB050CB110FE
S21400504008D810711CB879787B7820B879787B7886
S214005050607CF4244113511406982008727B53B8E0
S2140050600168050C687840EC00F8015053A800C0B1
S2140050706860084004110761076180D9047240EC3B
S21400508000C4F84008404EB010D8047118244113EC
S2140050900C23527C407B01502FA8050CFC233412B5
S2140050A000C1FF3FC0E0113A28130A0C00C0000000
S2140050B00100081406322813050C0150081408B81D
S2140050C06D7800A0115910D906710760076008D9DD
S2140050D00471076004D90471036002D90471016089
S2140050E001D90471006000A0108804110230067116
S2140050F00761076100C0FFFF00001138009100A0A3
S2140051000028012803280018002A012A0A18292A3C
S2140051100118052A02290000F01921B4478FA4BF00
S214005120A14F63FDEED6141D636032E0375EA4889F
S214005130534E6DFB6435BFF753A1811F582CD0A585
S2140051404540FC34F32742989F3EE22E0ECFFFBF29
S2140051501E45CA8C68234A4F16531EC44CBAAD9DD2
S214005160324B6808CF7BC04C0C0053696C69636F88
S2140051706E204C61627300000500021500292A00AB
S21400518002000A18020000000500021200012A00B0
S21400519003000000000000000500021000002A00C6
S2140051A002000018010000001300020D0016531E36
S2140051B0C44CBAAD9D324B6808CF7BC04C00000093
S2140051C00800000000000000000000001300020BB2
S2140051D0009F3EE22E0ECFFFBF1E45CA8C68234AB4
S2140051E04F0000000C0200000000000013000C0935
S2140051F00053A1811F582CD0A54540FC34F327420C
S21400520098000000080100000000000013000807D6
S21400521000636032E0375EA488534E6DFB6435BF92
S214005220F70000001000F01921B4478FA4BFA14F6B
S21400523063FDEED6141D000020000400CC110020F3
S2140052400500200300052A000200011800000108DE
S214005250FFFF00004852000002000108FFFF0000A8
S2140052604052000009000008FFFF0001385200000D
S2140052700A000708FFFF0003020000000000010804
S214005280FFFF00002452000002000108FFFF00009C
S2140052900C52000001800208FFFF000704520000C5
S2140052A002000108FFFF0000EC5100000280060823
S2140052B0FFFF0007E451000002000108FFFF0000A6
S2140052C0CC51000003800108FFFF0000C051000021
S2140052D002000108FFFF0000A8510000048001083A
S2140052E0FFFF0000A451000000000108FFFF0000BF
S2140052F0A051000002000108FFFF000098510000C6
S21400530004000108FFFF00009051000002000108A1
S214005310FFFF00008851000005000108FFFF0000A5
S2140053208451000000000108FFFF000080510000CB
S21400533002000108FFFF0000785100000700010886
S214005340FFFF00006851000003000700090000008E
S214005350002801280328FFFF0018002A012A000061
S214005360F01921B4478FA4BFA14F63FDEED6141DDC
S214005370D1A0835000AAD387174859A75DE904E651
S214005380915276BB2600008000100000A5000000A9
S2140053909A9396D7BD6AD9B51646D281FEF046DCFA
S2140053A0636032E0375EA488534E6DFB6435BFF70A
S2140053B053A1811F582CD0A54540FC34F3274298B2
S2140053C09F3EE22E0ECFFFBF1E45CA8C68234A4F73
S2140053D016531EC44CBAAD9D324B6808CF7BC04CEA
S2140053E0020000000500022200012A00030000005F
S2140053F0000000000500022000002A00020000183D
S214005400001501004D120020001401004E1200206D
S21400541002130200E80200200A120000000000004A
S21400542013000A1A0016531EC44CBAAD9D324B68C0
S21400543008CF7BC04C000000001101004F12002076
S2140054400010010050120020020F0200EA020020A5
S2140054500A0E00000000000013000A15009F3EE23E
S2140054602E0ECFFFBF1E45CA8C68234A4F00000091
S214005470000D010051120020000C01005212002005
S214005480020B0200EC0200200A0A000000000000E6
S21400549013000A100053A1811F582CD0A54540FCCC
S2140054A034F3274298000000000901005312002040
S2140054B0000801005412002002070200EE0200203D
S2140054C00A0600000000000013000A0B00636032AA
S2140054D0E0375EA488534E6DFB6435BFF7000000CE
S2140054E0000501005512002000040100561200209D
S2140054F0000301005712002002020200F002002002
S2140055000A0100000000000013000A050091527610
S214005510BB2600008000100000A500000000000070
S21400552002000200F20200201300020300D1A08352
S2140055305000AAD387174859A75DE904E600000083
S2140055401000F01921B4478FA4BFA14F63FDEED61B
S214005550141D000000000108FFFF00004055000079
S21400556002000108FFFF0000285500000180010826
S214005570FFFF00012055000002000108FFFF0000A9
S2140055800855000002800308FFFF000700550000D2
S21400559003800108FFFF0001F8540000030000002C
S2140055A0FFFF0001F054000003000000FFFF0001B1
S2140055B0E854000003000000FFFF0001E054000074
S2140055C002000108FFFF0000C85400000480030822
S2140055D0FFFF0007C054000003800108FFFF000122
S2140055E0B854000003000000FFFF0001B0540000A4
S2140055F003000000FFFF0001A8540000020001089D
S214005600FFFF00009054000005800308FFFF00071E
S2140056108854000003800108FFFF0001805400004A
S21400562003000000FFFF00017854000003000000A4
S214005630FFFF00017054000002000108FFFF000099
S2140056405854000006800308FFFF0007505400006F
S21400565003800108FFFF000148540000030000001B
S214005660FFFF00014054000003000000FFFF0001A0
S2140056703854000002000108FFFF0000205400001C
S21400568007800308FFFF0007185400000380010886
S214005690FFFF00011054000003000000FFFF0001A0
S2140056A00854000003000000FFFF00010054000043
S2140056B000000108FFFF0000FC5300000200010884
S2140056C0FFFF0000F453000005000108FFFF000084
S2140056D0EC53000002000108FFFF0000E453000046
S2140056E006000108FFFF0000E0530000030005006D
S2140056F006000700080009000B000C000D000E0055
S21400570010001100120013001500160017001800F4
S2140057101A001B001C001D004C5200001500000063
S2140057200B000000005100000500000018510000AA
S2140057300300000048530000801402000000000030
S2140057408114020000000000FFFFFFFF5455000018
S2140057502200000007000000505300000800000070
S2140057606053000016000000EC5600008214020091
S214005770000000008314020000000000FFFFFFFF8F
S2140057800100000000000000000000000000000013
S2140057900000000000000000020000000000000002
S2140057A000000000030000000000000000000000F1
S2140057B000000000030000000100000000000000E0
S2140057C002000000010000000200000003000000CC
S2140057D013B779FAC925DDB7ADF3CFE0F1B614B843
S2140057E000010000000000000000000008000000AB
S2140057F0000106020000000000000000000000009B
S2140058000000000000000000000000000100020090
S21400581015005400A9005301A7024F059F0A000077
S214005820FC00D80A066CFBFF9D00370518E2FEFF59
S21400583075000403F5E3FFFF4900B9019D4300002E
S21400584035005701F85700001600D10058570000E1
S2140058500E007C00D049000008004B0028390000EC
S214005860F8006C0B78DEFAFF9F00F1044EEAFEFFAC
S2140058707500DF0248DEFFFF4C00C3018D330000D9
S21400588024001901E44B00001300AC00904A00000D
S2140058900C006C00B13F00000700430046320000D9
S2140058A0C800FCFE60580000C800FCFE205800003F
S2140058B083FFBFFFE2FFF1FFF9FFFEFF00000000DD
S2140058C0FFFF000000000000FC00D2104C06FAFFAC
S2140058D081009B05F132FFFF500062020B3500008D
S2140058E026004B01885F00001800E0005E5D0000A7
S2140058F00E008C006A4F000008005100F73C0000C4
S214005900F8006D23441FEEFFF800F20E8E37FAFF04
S2140059107B00A40324A7FFFF4E00D601AD34000091
S21400592025003001004D00001300C000CA4A0000E8
S2140059300B006E00F73C0000060038008A2B0000C3
S2140059409600FCFE005900008C00FCFEC0580000CB
S21400595083FFBFFFE2FFF1FFF9FFFEFF000000003C
S2140059600100000004000000010000000400000028
S214005970F4010000FA000000960000006400000039
S2140059804B000000320000001E0000001400000063
S2140059900000000001010000010100003C0094002E
S2140059A03C0096000000000013001D0012001000CE
S2140059B0150000008B900000E7900000F3900000B8
S2140059C000000000000000000028000000000000AA
S2140059D00200000000000000002800000000000098
S2140059E0100000006C888391AAF5A53860370BDBA1
S2140059F05A6083BE3F49F6D4A3C55F3874C9B3E383
S214005A00D2103F504AFF607BEB40B7995899B8A632
S214005A10CD3C1ABDE69D350E480103CCDBFDF4AC4B
S214005A201191F4EFB9A5F9E9A7832C5E2CBE97F285
S214005A30D203B0208BD28915D08E1C742430ED8F03
S214005A40C24563765C15525ABF9A32636DEB2A657F
S214005A50499C80DC000000000000000001000000FF
S214005A600000000001000000000000000000000030
S214005A70010000000000000001000000020000001D
S214005A80020000000300000000000000020000000A
S214005A900000000000000000000000000000000001
S214005AA000000000020000000200000001000000EC
S214005AB000000000020000000000000000000000DF
S214005AC001000000000000000100000000000000CF
S214005AD005000000010000000000000005000000B6
S214005AE002000000020000000300000000000000AA
S214005AF0020000000000000000000000000000009F
S214005B000000000000000000020000000500000089
S214005B100100000000000000050000000100000079
S214005B200000000004000000010000000800000063
S214005B30010000001000000001000000000100004D
S214005B4001000000000800001D0000000002000028
S214005B501D000000000400001D0000000000010001
S214005B601D00000000000000324B0000A60E0000E2
S214005B709A1000000000280000000000000000004E
S214005B800000000078600000809C2B8F80841E0040
S214005B9000001C001C0064002C0100200000000017
S214005BA0809C2B8F80841E0000000000270064006D
S214005BB02801002030600000809C2B8F80841E000F
S214005BC00000070008002C013801002030600000AB
S214005BD0809C2B8F80841E0000000A000A002C0187
S214005BE03801002030600000809C2B8F80841E00CF
S214005BF000001A001A002C01380100203060000056
S214005C00809C2B8F80841E0000001B001B009600CB
S214005C103801002050600000809C2B8F80841E007E
S214005C2000001C001C002C01340100203060000025
S214005C30809C2B8F80841E0000001D001D002C0100
S214005C403801002010600000809C2B8F80841E008E
S214005C50000000001A002C01300100201060000037
S214005C60809C2B8F80841E0000001C0027002C01C7
S214005C7030010020885E0000E85F0000845B0000C2
S214005C800A000000000103FF04FF020007000000F6
S214005C9002000000040000000000000004000000F5
S214005CA00000000005000000460040002900020039
S214005CB00008000000000F4001000000FFFFFFFF8B
S214005CC0FFFFFFFFFFFFFFFF0000000000000000D7
S214005CD00000000001000000FFFFFFFF4B60D2271E
S214005CE03E3CCE3BF6B053CCB0061D65BC869876DF
S214005CF055BDEBB3E7933AAAD835C65A96C298D89C
S214005D004539A1F4A033EB2D817D0377F240A463DF
S214005D10E5E6BCF847422CE1F2D1176BF551BF37E8
S214005D206840B6CBCE5E316B5733CE2B169E0F7CBB
S214005D304AEBE78E9B7F1AFEE242E34F512563FC57
S214005D40C2CAB9F3849E17A7ADFAE6BCFFFFFFFFF1
S214005D50FFFFFFFF00000000FFFFFFFF0301070635
S214005D6003010706050106060501060603020706E7
S214005D7003020706050206060502060600000000E6
S214005D8000000000000008400000002100000102A2
S214005D900203030303000000183F0106041001007D
S214005DA00001010600102700000C000000000000A3
S214005DB000000000183F0106041001000001010663
S214005DC000102700000C000000000000000000008B
S214005DD0183F01060410010000010106001027000C
S214005DE0000C00000000000000000000183F010644
S214005DF0041001000001010600102700000C00003E
S214005E000000000000000000183F0106041001001A
S214005E100001010600102700000C00000000000032
S214005E2000000000010000003333330000000000D3
S214005E30985D0000685B000001000000333333000B
S214005E4000000000B45D0000685B00000100000078
S214005E503333330000000000D05D0000685B0000B4
S214005E60010000003333330000000000EC5D00004A
S214005E70685B0000010000003333330000000000C0
S214005E80085E0000685B0000F00F0401245E00005E
S214005E900000000000C003000BC003000400020066
S214005EA0018101000001000018000200000000004F
S214005EB001000000280007000000000000000000AD
S214005EC000000000000000000000000000000000CD
S214005ED0A007000048000100000000005400020077
S214005EE00000000000000000A000040001480000C0
S214005EF0FF4C000001490000FF4D0000002001009B
S214005F000807000010200100AAAAAA001820010015
S214005F100060DA00083001003FAC000030300200BC
S214005F20AA2A100001000000403001000000000016
S214005F30A04001007A27000FF44001002010000066
S214005F403441020080080000E6870000404102005D
S214005F5048008800C0E653111460150010000000C9
S214005F60000000841FC00100C820000000000000E0
S214005F700000000300000000C804FF00A2080000A4
S214005F800A0000019100040029417671000000001B
S214005F908C00D40A00000000D1032A000000000094
S214005FA000000000040A132232414A4F000000009D
S214005FB014700300F8700200000300006000D08137
S214005FC02870010000008001487002003C3D00007F
S214005FD0BC1900007070030005810000130100006A
S214005FE000235500FFFFFFFFF00F0401245E0000B2
S214005FF00000000000C003000BC0030008300100D2
S2140060003FAC0000F440010020100000FFFFFFFF3F
S214006010F00F04014C5E00000000000000C003000A
S21400602009C003000830010037AC0000FFFFFFFF87
S214006030F00F0401745E00000008000000C00300BA
S21400604008C003000830010037AC0000FFFFFFFF68
S214006050F00F0401605E00000000000000C00300B6
S21400606009C003000830010037AC0000F44001000E
S21400607020000000FFFFFFFFF00F0401385E000065
S2140060800000000000C003000BC00300F440010045
S21400609020000000FFFFFFFF4145532D3132382D11
S2140060A0454342004145532D3139322D4543420088
S2140060B04145532D3235362D454342004145532D3B
S2140060C03132382D435452004145532D3139322D4B
S2140060D0435452004145532D3235362D4354520019
S2140060E002000000971302009B130200B713020081
S2140060F0B3130200BB130200D51302000200000017
S2140061000100000080000000986000001000000001
S2140061100000000010000000E06000000300000027
S21400612001000000C0000000A46000001000000095
S2140061300000000010000000E06000000400000006
S2140061400100000000010000B06000001000000028
S2140061500000000010000000E06000000B000000DF
S2140061600500000080000000BC6000001000000079
S2140061700000000010000000E06000000C000000BE
S21400618005000000C0000000C8600000100000000D
S2140061900000000010000000E06000000D0000009D
S2140061A00500000000010000D460000010000000A0
S2140061B00000000010000000E06000000200000088
S2140061C0FC600000030000001C61000004000000EA
S2140061D03C6100000B0000005C6100000C00000049
S2140061E07C6100000D0000009C61000000000000C3
S2140061F000000000C00300000000000001000000D6
S21400620008070F000A00C80020000000A0000000D9
S2140062100000000000000000A00055010A2007064C
S214006220020A04070000000001000000050000004C
S2140062300000000000000000000000000000000059
S2140062400800020006000100200B0000010002000A
S214006250636032E0375EA488534E6DFB6435BFF74B
S21400626053A1811F582CD0A54540FC34F3274298F3
S214006270B814B6F1E0CFF3ADB7DD25C9FA79B71398
S2140062804FF000510860BFF34F8F0548054A01687C
S21400629001F4E06111430160BFF34F8F00BFFDE7DB
S2140062A00CED00E00400FA054FF00050006870475F
S2140062B04FF000510860704780B500B30FF25101EF
S2140062C01D2000F069F80121294800F067F92948E7
S2140062D000F011FD28484FF0FF31416340F2FF7196
S2140062E001604168C90AC9024160416841F0010184
S2140062F041604FF0005021490860214908600120A4
S214006300204900F0E1FC20490020086001BD0000A3
S2140063101E480168CA0703D51B4A13685B1C136036
S2140063204A0703D5C26822F00402C2608160704743
S21400633017490863086840F004000860704715486D
S214006340006870471248016841F00101016070471B
S21400635010B50D490A680F4B1B680C68A242F9D1AC
S214006360510441EAD3310160C3F30E01818010BDB0
S21400637080091200805700002020044080E200E0E0
S21400638000E100E0985700000004002018200440B8
S214006390242004400820044041F0010100F063BDC1
S2140063A000B51F4883B0006800F16041B1F5F84FB2
S2140063B007D300210191009132231A4A322100F0BE
S2140063C058FD1949002000F04EFD1849012000F044
S2140063D04AFD1749032000F046FD1649042000F048
S2140063E042FD1549052000F03EFD1449062000F048
S2140063F03AFD1349072000F036FD1249192000F037
S21400640032FD11491B2000F02EFD10491C2000F023
S2140064102AFD03B05DF804EB0D491E2000F023BDF5
S21400642008ED00E000030020CDB00100F5DE01001D
S21400643029DB010039DF0100FBDE0100FDDE010083
S214006440F7DE0100230602003BDF0100F9DE010053
S2140064506FDF0100890001EB401000F1844002600C
S2140064607047890001EB401000F1844000687047D7
S2140064700122DFF8F01610B5884232BF0022DFF89E
S214006480E816884201D2144600E002241021DFF804
S214006490DC06FFF7DFFFDFF8E007016821F0807118
S2140064A041EA0461016010BD10B5DFF8C416CA6B7E
S2140064B002B1012241F67133CB63DFF8B8460B68B0
S2140064C003F04073A04238BF002304D3DFF8AC4784
S2140064D0A04238BF0123086820F0407040EA0360FD
S2140064E00860D2B20AB10020C86310BD80B500F0C3
S2140064F0F8FCBDE804400021D6E7D5E7C01C0F280D
S21400650001D2000770474FF070407047000000004F
S21400651038B50446002500F037F9DFF85027DFF8D5
S214006520E816944208D0DFF84827944206D0DFF8F1
S2140065304427944204D006E0086802E0486800E079
S214006540886800F00700401E03281BD8DFE800F02C
S21400655002050C0800F007FD04E000F00AFD01E06B
S21400656000F004FD05460DE000F0AEFCDFF808176D
S2140065700968090E01F001010122491C02FA01F125
S214006580B0FBF1F5284632BDDFF8F4164A68D207AC
S21400659002D40A680242FCD170470000F8B50446EF
S2140065A0200A00F00F000026401E09280D46DFF8DE
S2140065B0DC7614D8DFE800F0051C1413071E211340
S2140065C02428DFF8A875C4F3043416B13046FFF764
S2140065D0DBFF2A4621463846BDE8F8403AE7F1BDDB
S2140065E0DFF8AC0600F013F8FFF742FF0837EAE7DB
S2140065F01037E8E730370126E5E738371026E2E7B8
S21400660040374FF48036DEE7DFF88876DBE770B594
S214006610DFF87016DFF854260E68DFF85416DFF839
S2140066205846012510F478105DD0B0F5003F2AD00A
S214006630B0F5802F21D0B0F5002F54D0B0F5202F24
S21400664027D0B0F5402F46D0B0F5602F66D0B0F515
S214006650901F3BD0B0F5A01F24D0B0F5B01F2AD0B5
S214006660B0F5D01F1CD0B0F5E01F22D0B0F5001F4B
S2140066702CD0B0F5381F39D04FE000F034FCE1687C
S214006680C1F308210AE000F02EFCA168C1F308213E
S21400669004E000F028FC6169C1F30421491C12E003
S2140066A0104615E01046FFF733FF216A01F00F0190
S2140066B007E008460CE00846FFF72AFFA16A01F04B
S2140066C0030105FA01F1B0FBF1F627E0DFF8A405B7
S2140066D0FFF71EFF1FE0DFF8C00500F055F807289B
S2140066E01CD0092819D100F0FEFB14E0DFF8AC0539
S2140066F000F04AF804280CD007280FD008280CD140
S21400670000F0F1FB2168C1F30421491C01FB00F6EF
S21400671004E000F003FC064600E00026304670BDAC
S214006720030903F00F0301225B1E072BDFF8481551
S21400673028D8DFE803F004060A0E10141C270868A1
S21400674000E04869C0F3042070470868C0F30060A2
S2140067507047C86800E08868C0F308207047DFF814
S214006760403598420ED1086A00F00F0006E0DFF8C8
S2140067703435984206D1886A00F0030002FA00F029
S214006780401E704700207047014601F00F010120AF
S214006790491E0729DFF8102549D8DFE801F0040F65
S2140067A01348202E4836506A00F0070002283AD0D8
S2140067B002D3042804D01CD30520704711690FE0CB
S2140067C002207047516901F00701491E03292FD89E
S2140067D0DFE801F00F020311F2E706207047916927
S2140067E001F00701012904D00229E9D0042902D0CA
S2140067F07047032070470A207047116811F00101A6
S2140068000FD0012914D109207047DFF8A0140968B9
S21400681001F03001102904D0202904D0302904D0FA
S21400682070470720704704207047082070470020F4
S2140068307047000070B500F00F0003240325401ECB
S2140068400728DFF864640FD8DFE800F0042E347CF5
S21400685031607C6A0229DFF80C0306D003291AD0BF
S21400686004291AD005291DD070BD04240025012254
S2140068700121284600F0DEF8FFF738FE7460DFF8E6
S2140068801004FFF7C4FEFFF7F3FD00F01DFBBDE8A4
S2140068907040002131E60125E9E702240225FFF7D2
S2140068A0E7FDE4E70124FAE706F1100404E006F148
S2140068B0180401E006F11404012908D0022909D0C1
S2140068C003290ED0062913D00A291DD070BD00203A
S2140068D0206070BD01220121002000F0ABF80220EC
S2140068E0F6E701220121012000F0A4F80120EFE7DD
S2140068F000F0EAFAFFF7BCFD01220021DFF88C0366
S214006900FFF7A8FD0320E3E70420E1E7072902D00C
S214006910092902D070BD002000E00120306070BD63
S214006920012906D0042915D007290CD0082918D02B
S21400693070BD0020DFF874130A6822F0300242EAC5
S2140069400010086070BD01220121042000F072F8DA
S2140069500120EFE701220121022000F06BF802205F
S214006960E8E70320E6E770B5DFF84843236800F061
S214006970804040F04055AB4309B14FF080511500C0
S21400698014BF4FF00055002501432943002808BFD7
S214006990002A41EA030508D000F0C0FA06460021A6
S2140069A0FFF7ABFD3046FFF763FD256070BD70B5A1
S2140069B000F03DF801220021022000F03BF821699A
S2140069C0DFF8F05200200229296808BF0120490894
S2140069D040EA41002860082122782846FFF73AFD61
S2140069E06868E17AC00841EAC0006860617AA088F9
S2140069F041EAC020A860EE68207AFFF77FFDE288B3
S214006A0006F07F6141EAC221A27A1143227A41EA66
S214006A10C2110843E860A17B607B090141EA0030AF
S214006A20E17B0843217B40EA0140286170BD0446B3
S214006A301120A9E62DE9F84F04288046924670D822
S214006A40DFE800F04B463C03410001260220012708
S214006A5000240029DFF83092964D5DD0B8F1020F81
S214006A6004BF286810F0300F4FF0000B0AD12868DA
S214006A70C0074FF0010B05D5286820F0300040F025
S214006A8001002860EE6300F04EF80028FBD0BAF153
S214006A90000F46D0394600F047F80028FAD0B8F183
S214006AA0020F3ED1BBF1000F3BD02868C0071BD5B4
S214006AB001222021022000F0C9F819E0042608204F
S214006AC003270224C5E71026202005270424C0E754
S214006AD04026802007270624BBE74FF480764FF435
S214006AE0007009270824B4E70021022000F08EF881
S214006AF0022000F01DF80446012200210220FFF7C4
S214006B0099FF2146022000F037F8EE63394600F080
S214006B100BF80028FAD004E0E86300F004F8002838
S214006B20FBD1BDE8F18F21464846FFF79ABC00002E
S214006B30401E03285E4912D8DFE800F0020C060863
S214006B400869C0F308007047086800E0886800F02D
S214006B507F00704758480068C0F30A00704700205E
S214006B60704700000148E8010190D00300400E4045
S214006B7004000E4041787D0170B5401E0D46032886
S214006B8005F07F014A4C3E4E3DD8DFE800F0022A71
S214006B90101DC5F308051A213046FFF762FC0028D1
S214006BA0F9D12069400A45EA4020206170BD0D46B3
S214006BB018213046FFF755FC0028F9D12068C00997
S214006BC045EAC010206070BD0D4619213046FFF71B
S214006BD048FC0028F9D1A068C00945EAC010A060AA
S214006BE070BD29480068606920F0300040F0100051
S214006BF06061C5F3C310FFF781FC216A2F4A11407C
S214006C0029430843206270BD80400E402948026830
S214006C1012F0300F18BF002907D0202902D03029E3
S214006C2003D005E04FF4000103E04FF4400100E01C
S214006C302349C26E0A408A42FBD1490204D5C06F7E
S214006C40800A00F0010070470120704710B5022846
S214006C5009D121B11B4B4FF480645C64196012B1FA
S214006C60BDE81040D2E7012010BD000002001A0067
S214006C7003001C000500200000410E40015A62027D
S214006C8040410E402400002090400E40B0400E4090
S214006C900005080050410E4006000C0098002E002B
S214006CA0600614007007160070400E405C410E40EF
S214006CB010400E4024400E409C400E4000F8FF0F4F
S214006CC0FF03F10764400E400A684B6842EA8302FD
S214006CD08B6842EA8312CB6842EA03120B6942EAE7
S214006CE0C3220B7D896942EA033242EA4141104AD7
S214006CF00001115070470178427841EA820182789B
S214006D0041EA0211C27841EA4211426841EA022190
S214006D10826841EA0231027B41EAC2310269007DA3
S214006D2041EA024141EA40400249086070470000DB
S214006D304020044000200440002806D55C4900F0AE
S214006D400F00084410F8040C01E05A49085C40099A
S214006D50704738B504460D4600F02CF95649D1E97F
S214006D600023C4E90023D5E90023C1E90023BDE8D8
S214006D70324000F023B910B5044600F01BF9D4E900
S214006D8000234D4906E010B5044600F013F9D4E997
S214006D9000234A49C1E90023BDE8104000F00EB9BF
S214006DA0F8B5074600F006F9444ED6E9004500F06F
S214006DB005F938687968044001EA050220EA040407
S214006DC021EA0200210008BF0028054604D0C6E9D3
S214006DD000453948C0E90045F1BD10B500F00AF895
S214006DE0184304E010B500F005F823EA000041F867
S214006DF0220010BD420951F82230012400F01F0085
S214006E0004FA00F0704710B5044600F0D3F82B499A
S214006E10D1E90023C4E90023BEE770B5064600F0BA
S214006E20C9F82649D1E9004500F0C8F83068204284
S214006E3005D170682840401E8041C00F70BD0020FC
S214006E4070BD1E49420951F8221000F01F00C140D3
S214006E5001F0010080F0010070471949096801EB54
S214006E608000006C7047164A126802EB80000164CE
S214006E707047F0B5059D069C002603E00FB942F862
S214006E802650761C9E420FD2270002D08E42F6D2A3
S214006E9005E052F826708E42F0D2002FF1D150F85D
S214006EA0267042F82670ECE705480260F0BD000048
S214006EB018ED00E000E400E080E100E000E100E022
S214006EC008ED00E072B6704780B500F00CF8304967
S214006ED0304A0968C1F30821491CB0FBF1F0106084
S214006EE002BD2D4870472D48016801F007010229B0
S214006EF009D00AD3042901D002D306E0284905E0C8
S214006F004FF4004103E0274900E027490968C06EB6
S214006F10C0F30420401CB1FBF0F070472148006825
S214006F207047204908601D48006800F007000228E6
S214006F3008BFFFF7C9BF70471C48016841F47001DD
S214006F4001601B48416941F40051416101688908AC
S214006F5089000160416B490849004163016A21F0DC
S214006F608051016270474FF4004070474FF47A70CA
S214006F7070470B4800687047094908600748006872
S214006F8000F00700042808BFFFF79EBF7047000008
S214006F9008410E401C00002000F0490294400E40BC
S214006FA018000020140000202000002088ED00E0DB
S214006FB040300E40EFF3108072B6704700B962B6EC
S214006FC07047002ADFF800F069020020DFF800F0C2
S214006FD0D502002010B582B00446FFF7F3FF00206C
S214006FE000F056F9201DFFF7F1FF00F050F904F10C
S214006FF00800FFF7EBFF221D082100F09FF900F0C4
S2140070004BF9002016BDC0F30A010831B1F5006F38
S21400701004D280884FF6FF71884201D10120704764
S2140070200020704710B500F059FADFF88404DFF846
S2140070308444016809048909A1F58051216008216A
S214007040006800048009A0F5006060602068021DEA
S21400705000F074F92168096888421CBF2068FFF7B1
S214007060B9FF6068021D082100F068F961680968C8
S21400707088421CBF6068FFF7ADFF20684068616803
S214007080496888428041DFF83014C00F0870BDE8B8
S214007090104000F02CBA2DE9F04104464FF6FF757B
S2140070A0AC4214BF002840F2122084B00E4633D003
S2140070B000F0E8F850F8218000F010FA08F10C070C
S2140070C03846FFF7A0FF20BBB888304006EA040128
S2140070D0884211D1D7E90001CDE90001ADF806508C
S2140070E00422BDF804006840ADF8040002A9019827
S2140070F00290381DFFF76AFFB87900F0DFF907EB5A
S214007100800000F10807F80A08F10C0100F00EF9FB
S214007110D6D000F0ECF9002004B0BDE8F0812DE9EF
S214007120F84F80464FF6FF70804514BF5FEA0800B0
S2140071304FF4C07084B00D4693461F465CD000F0F6
S214007140A1F850F8219000F0C9F909F10C040026C6
S21400715009F10C0A2046FFF756FF002832D100F04E
S214007160EAF82168884204BFA088404521D1A0796A
S214007170834509D104985A4604F1080100F0C2F983
S21400718010B900F0B4F970E0D4E90001CDE90101CE
S2140071900422BDF808004FF6FF714840ADF808001D
S2140071A0ADF80A10694602980090201DFFF70EFF02
S2140071B0064600F0FEF800F05FF808BF002EC9D0C3
S2140071C0002E4FD15FEA0B004CD004EB0B000830CA
S2140071D0C00A00F051F810D000F012F90446C4F3CB
S2140071E00A00002804D058440830B0F5006F04D9CF
S2140071F000F07DF940F201503BE04BEA0520ADF887
S2140072000A00ADF80880251D029800902646042244
S21400721069462846FFF7DAFE2C1D00250EE0387872
S214007220797840EA0120B97840EA0140F97840EAE6
S214007230016000F031F83F1D241D6D1C38B90BF1BC
S2140072400300411000EB9170B5EBA00FE7DB321D99
S2140072500BF1040100F072F800F01AF83046FFF760
S214007260B5FE064600F043F90EB9002001E04FF4E3
S214007270C67005B0BDE8F08FC0024FEADA21B0EB69
S214007280C12F70478C498B4891F900107047012038
S2140072900090042269467047009004226946204602
S2140072A0FFF794BE2DE9F0470C46834991F900108C
S2140072B00746804850F821A0154699460AF10C0862
S2140072C046463046FFF79FFEA0B9B079011D321D35
S2140072D000F034F83168814218BF7F1CF088FF2127
S2140072E090FBF1F1C1EB0121401A00F0EDF800F03F
S2140072F019F802D040F2025012E03846471EC0B2DB
S2140073000028DDD1B088208015B1F088000A2870EA
S214007310F08889F8000006F1080008990860002047
S214007320BDE8F0874FEAD8200AF10C01C002C90A6E
S214007330B0EBC12F7047A079011D221D4FF0FF3022
S21400734000F012B92DE9F8430D465B4991F900109B
S2140073508146584850F8218016461F4608F10C040E
S2140073602046FFF750FED8B9FFF7E5FF21688842B0
S21400737004BFA08848450CD194B115B1E088000A36
S2140073802870E088307004F1080038600020BDE8FE
S214007390F28300F00EF808F10C01FFF7C7FFDFD00C
S2140073A00DB10020287000203070386040F2025086
S2140073B0EDE7A079C01C411000EB9170801004EB43
S2140073C0800000F10804E00A70471CB514466B46BE
S2140073D001AAFFF7B7FF10B99DF8040010B940F2F4
S2140073E0025016BD0098007820809DF804100229EF
S2140073F004DB0099497840EA01202080002016BD71
S2140074002DE9F0472C4C2B4994F9000082B051F836
S21400741020A080F0010051F820502846FFF7D2FD4A
S2140074200AF10C0805F10C0902E0B07900F04CF8FE
S214007430FFF778FF1ED146463046FFF7E4FDC8B991
S214007440B079011D321DFFF779FF31688842ECD113
S2140074500027B07900F032F8801C8742E8DA58F846
S214007460040BFFF715FF4846FFF7B0FD09F10409C6
S2140074707F1CEEE7DAF80400401CFFF709FF281D22
S214007480FFF7A4FDFFF703FF05F10800FFF79EFDD9
S2140074902A1D0821FFF752FFFFF7FAFE2846FFF7DE
S2140074A095FD207880F0010020704846BDE8F687FC
S2140074B0F881E00F04040020F4020020C01C4110F4
S2140074C000EB917080107047C01C411000EB91706B
S2140074D0801008EB800000F108087047084841F665
S2140074E071318163016849084900016070470448AA
S2140074F00168490849000160002181637047000067
S21400750008000E400300002013F0030F09D0521E9F
S21400751022BF13F8010B11F801CBB0EB0C00F3D02F
S2140075207047121F22BF53F8040B51F804CB604576
S214007530F7D0121D0AD200BA9CFA8CFCB0EB0C00F5
S21400754038BF6FF0000088BF01207047521E22BF70
S21400755013F8010B11F801CBB0EB0C00F6D0521C5F
S21400756008BF10467047032810B50A4B40F20114B6
S2140075701C6098600120586002E012F8010B9861C8
S2140075800846411E0028F8D1D8694FF0FF31484020
S21400759010BD00BF00C00140DFF8C003007801281E
S2140075A018BF00207047DFF8B81308607047DFF890
S2140075B0AC235378038090780880704710B5DFF8C6
S2140075C09C331C7804431C70012804BF59709A70C1
S2140075D010BD38B504460D462278611C284600F0DA
S2140075E0EDF92078286131BD2DE9F04385B00646D7
S2140075F0894617461C4600F0E7F9FF1EDFF864834D
S214007600D94D38D07F1E53D0FF1F00F00A81FC3FB3
S21400761000F09B807F1E00F0F6807F1E00F0CF807B
S214007620F83F49D0BF1E53D0FF1E6BD07F1E00F020
S214007630E080FB3F14D040F2FF403F1A00F0258167
S2140076407F1E00F001817F1E00F008817F1E00F083
S2140076500F817F1E00F01081BF1E00F023812DE1F8
S214007660BF4805682800FAD0234640F20232494651
S2140076703046A84722E10C22002101A800F0B1FA0A
S21400768001A800F0B9FA0220A88000230620E880AE
S21400769000220120288129464FF432606881029832
S2140076A0E86001202882B14800F00CF9122003E1BE
S2140076B02068A880AE48FAE02068007B8007D9D50D
S2140076C06068A88000232068C07F00F008F9E7E023
S2140076D02068C07F00F0AEFB060012D0307B80062C
S2140076E00FD46068A8800023F07F00F0F8F8072029
S2140076F000F0A6FC304600F0F5FCF06840F02000F4
S214007700F060DBE0FFF748FF20B9206890F83D10F6
S214007710FF290AD1206800F0F5F800F0D7F818BF66
S214007720002000F0E4F893485FE000F0EBF800F08B
S214007730CDF818BF002000F0DAF8206890F83D0079
S214007740A8738D4800F0BEF837E08C480078002813
S214007750D7D16078FF2813D1A07828710622E11CC3
S214007760681D00F02BF9607AE8720023A07A28736F
S2140077700022834828602946012000900D209BE0C7
S21400778020782871062260786871E11CA81D00F038
S21400779015F9607A287304F10C03A07A6873E07A0E
S2140077A0A8730B30010241EA102040F4403040F04C
S2140077B0A00000F087F82946AA7B0F207CE000F0A6
S2140077C0ABF800287AD000F0A3F86088A5F805008A
S2140077D00022A088A5F807002946E088A5F8090039
S2140077E0207AE8726089A881664800F06BF80E205F
S2140077F062E000F091F8002860D020782871607868
S2140078006871614853E0FFF7C7FE30B15F482860F3
S214007810002300F067F804204EE000F079F85C489A
S2140078201FE000F079F800281CBFC17D102945D064
S214007830C07F28710023607868710022A078A87144
S21400784029465448286029E000F066F8002835D01C
S21400785020782871607868714F4828E000F058F862
S2140078604E4828600022012000902946052023E08B
S21400787000F055F84A4802E000F051F84948286000
S214007880294601200090092016E000F041F86068C3
S214007890A5F80500002244482860294601200090EB
S2140078A0072009E020782871606868713F482860E2
S2140078B0002300F017F8062000F0C2FB002005B0F9
S2140078C0BDE8F08328600120009070472068C07DE6
S2140078D0A8722946206890F82E0001287047A871E3
S2140078E0C5F8008001200090002229467047E87203
S2140078F000232068C07F28730022206890F83C0090
S2140079006873704700F111010622281D00F056B872
S2140079102078287100237047207800F08BBA2078F2
S214007920287100236068C5F805000022704703220E
S21400793000210A4800F055B938B5044640F22D1526
S2140079402846A0471A4908602846A04719490860F3
S2140079502846A0471849086031BD000048040020AA
S2140079604C040020A003080118040020A00E01000B
S214007970A0020105A00A0800A00B08053612002088
S214007980A0090302A00A0802A0020804A00003013E
S214007990A0010303A0030803A0020F03A0010F0128
S2140079A0A0050F00A0050F02A0030F04A0020F09F8
S2140079B00C040020100400201404002010B5044617
S2140079C000F0AEFB204610BD38B540F20161521AF9
S2140079D01C465D485D4D1AD0521E1CD0521E29D042
S2140079E0521E47D0521E3BD0521E56D0521E66D054
S2140079F0521E68D0F93A6DD0521E74D0521E76D000
S214007A00521E00F08880521E00F08D8099E000F033
S214007A10C2F84F488DE02078287104F108036068AA
S214007A20C5F80500A06900F0BCF84A49084328607C
S214007A30294674E02078287104F108036088A5F8C8
S214007A4005002079E871A0692872287A2A7A401DF4
S214007A50010241EA1020404900F08EF809206EE04D
S214007A6000F0B3F8A872A87AC01D010241EA1020FF
S214007A703A4941E020782871231D6088A5F8050062
S214007A806069E871E879EA79001D010241EA102090
S214007A90334900F071F8082051E000F07CF8A08827
S214007AA0A5F80700A06800F031FE00F07AF82D492E
S214007AB0084328602946022000900A2023E0217807
S214007AC02971616803E02178297140F20311A5F855
S214007AD005102EE000F079F800F054F840F420206D
S214007AE040F0A00009E000F064F81F4816E000F03F
S214007AF06CF800F047F81D490843AA7A2860294622
S214007B00022000900B20A36800F09AFA04F1080007
S214007B1000F033FD15E000F04CF815482860012011
S214007B2000900A200BE0207828716068A5F8050010
S214007B30104828600023012000902946072000F006
S214007B407FFA002032BD0000A003090618040020BA
S214007B50A0030900A0000901A0000902A000090472
S214007B60A0000903A0000905A0060A01A0000A0259
S214007B70A0060A03A0030A04084328602946012039
S214007B8000907047A872A87AC01D010201F47F41D8
S214007B9041EA10207047207828716088A5F8050013
S214007BA070476872687A6A7A801D010241EA10207E
S214007BB070472078287100236088A5F805002946BC
S214007BC02079E871E08828817047207828716088DD
S214007BD0A5F805002079E871E0882881A06800F003
S214007BE095BD10B5044610460A460146204600F0EC
S214007BF0F7FE204610BDFEE710B540F628010A68DD
S214007C00A2F50063B3F5605F09D21368214CA34266
S214007C1005D19268426001230968896901E0002362
S214007C2000218160036010BD40F628000068A0F5C2
S214007C300061B1F5605F3CBFC069004709E040F6EF
S214007C4028000068A0F50061B1F5605F3CBF006ADF
S214007C5000474FF4817070470F480121816040F261
S214007C6002224FF000510A804FF20F024A8001684C
S214007C7021F4E06141F480610160BFF34F8F074853
S214007C80074A016801F4E06111430160BFF34F8FBA
S214007C9000BFFDE707B0CD5E00500E400CED00E0E3
S214007CA00400FA0540F628021268A2F50063B3F550
S214007CB0605F3CBF926A104740F20220704738B5BA
S214007CC040F628042468A4F50065B5F5605F02D385
S214007CD040F2022032BDE46AA04732BD40F62801D9
S214007CE00968A1F50062B2F5605F3CBF496A0847C3
S214007CF0002070472DE9F04105460E4690461F4687
S214007D00022000F0D3FE04002DD0502100F0FAFE31
S214007D10A6770622294604F1180000F001FAE77556
S214007D200622414604F1110000F0FAF904F13C0085
S214007D304FF0FF310170FF21417000205D49401C6B
S214007D400A68C0B203E0D37F9842F8D09268002A4F
S214007D50F9D1E07740F6FF7020840868A0600C60D8
S214007D60204600F0A9F82046BDE8F08100B1018465
S214007D70704710B504003AD094F904000128A4BF57
S214007D80401E207194F90400012809D1207B800749
S214007D9006D5207C01001EBF0128204601F0CFF941
S214007DA094F90400012822DA204601F0B6F904F11D
S214007DB0240000F0E2FB3F49086858B1844203D132
S214007DC0A068086006E00846816819B1A142FAD1A9
S214007DD0A168816000220FF21901204601F048FDDB
S214007DE02046BDE810400022012101F03BBD10BD39
S214007DF010B5012A0C4602D0022A07D004E0002261
S214007E000221204601F02EFD002010BD204601F084
S214007E105EFD2146022000F05AFE012010BD2549D5
S214007E20096800E0896800291CBF0A8C8242F9D1E3
S214007E30084670471F49096800E0896800291CBF8A
S214007E40CA7F8242F9D10846704770B50446194881
S214007E5006680D4600E0B66856B1F07DA842FAD135
S214007E600622214606F11100FFF74CFB0028F2D14E
S214007E70304670BD38B504460E48056800E0AD686B
S214007E805DB1287C0428FAD13CB10322214605F1D5
S214007E901400FFF737FB0028F1D1284632BD10B991
S214007EA004480068704780687047024900200860F0
S214007EB070470000A405002010B10179491C01712B
S214007EC07047024600235021022000F0BDBD02206C
S214007ED000F0F7BD57490A68100003D012680A6020
S214007EE001F083BD70475348006800B1001D70471D
S214007EF02DE9FC410F46064638780006144698469B
S214007F000FD5A019001D01F05EFD4A4D30B30021CB
S214007F10016000E00D4629680029FBD12860051D98
S214007F2001E045480568324639462846FFF746FDD3
S214007F30A4B10898AD19022808D122464146284621
S214007F4002B0BDE8F041002300F070BA2246414678
S214007F50284602B0BDE8F041FFF730BDBDE8F3812A
S214007F60E0B58278C078ADF80810000640EA024016
S214007F7040F408700190002301200090002201A91F
S214007F800620FFF7B5FF07BDF1B582B00C4601200D
S214007F9000F097FD0B2838BF4FF4C1712AD327484D
S214007FA0006800210CE00832566846B1167806F0E4
S214007FB0F806BE4204BFD678AE42F4D111468068B9
S214007FC088B181B94268029B0093002A9DF8003070
S214007FD09DF80350F3D096789DF80270BE42EED11D
S214007FE003F0F807E0E719B1496820468847F7BD6F
S214007FF040F2831102A8FFF7B3FFF7BDC4E770B5E0
S2140080000E4E044630680D4600E0806818B14168A0
S214008010A942FAD10BE00C2001F0E4FC10B94FF4B1
S214008020C17070BD047045603168816030600020AA
S21400803070BD0000500500201004002054050020EC
S21400804010B582B0049C0094FFF752FF13BDFEE704
S21400805080B51A490020086001F0C9FCFFF725FF2B
S21400806000F068FD00F098F801F0C2FC01F05FFE39
S21400807002F05AFD02F0D6FEBDE8014001F04BB812
S21400808038B504460D46002301220021002000F0EA
S214008090DBFC2046FFF715FF284601F039FE0020DE
S2140080A032BD1CB5044606220549684600F048F86D
S2140080B020466946062200F033F813BD100600205D
S2140080C0080A002010B5044603E001F02FFC01F07A
S2140080D020F800F09DFF00282046F6D1BDE81040AD
S2140080E001F024BC002818BF02F051BB4FF4C0704A
S2140080F0704780B5FFF79EFE20B1008CBDE80240B9
S21400810001F096BA4FF4C07002BD01B56A4601216F
S214008110012001F0BCFA002002BD01F0B8BAFEE76B
S21400812062B38B0708D0521E11F8013B00F8013BE2
S21400813000F024808B07F6D1830740F0208000BF34
S214008140103A07D330B4B1E83810103AA0E8381027
S214008150F9D230BC530724BFB1E80810A0E80810D5
S21400816044BF51F8043B40F8043BD20724BF31F823
S214008170022B20F8022B44BF0B7803707047083A96
S21400818007D3B1E80810083A40F8043B40F804CB9F
S214008190F7D25307E4E7FEE780B5012000F0A1FC24
S2140081A0DFF82418801F08600020DFF82018087009
S2140081B0DFF81C18086001BD2DE9F0470546894622
S2140081C0924602F04AFF8046DFF8FC07DFF80448D4
S2140081D00068DFF80468012D22D13168814224DA74
S2140081E0012000F063FC07002FD0102100F08AFC6D
S2140081F0B86840F00800B86087F809900AEB0900F4
S214008200B872002038607D60B86840084000B860EA
S2140082100020012DF8600DD13068401C306018E059
S214008220002DDDD121688142DADB404602F019FFDD
S214008230002012E01DB92068401C206009E0DFF82D
S2140082409C070168491C016003E0DFF880170120E5
S2140082500870404602F005FF3846BDE8F087002269
S2140082600021A9E78B18462BBCBFC9B2FFF7A4BFF5
S2140082700020704738B514461D460022C9B2FFF7E5
S2140082809BFF009040B12A46214600F054FAA842CF
S2140082903CBF684600F071F9009832BDF8B5044658
S2140082A000200D46009000261CE0607A7872A07AC6
S2140082B0B872A068B968400860F34101B960A06868
S2140082C0B968800860F38201B96000F03FF8787AF8
S2140082D0384400F0A8F8009800B9009706B1376057
S2140082E024683E465CB1002200212846FFF764FF62
S2140082F00700DAD1684600F040F90020F2BD009889
S214008300F2BD38B50446084600220021FFF754FFA8
S214008310050001D1002032BD607A6872A07AA8728A
S214008320A068A968400860F34101A960A068A96830
S214008330800860F38201A96000F008F8687A284493
S21400834000F071F800202860284632BD607AA17AD5
S2140083500A1A204400F11001704738B5050031D0E4
S21400836002F07BFE0446A868696820F00800012930
S214008370A86008BFDFF8601605D000290CBFDFF83C
S2140083805416DFF858160A68521E0A60C0072946B7
S2140083904CBF0320012000F09AFBDFF8300601787E
S2140083A059B100210170DFF82806056803E0696806
S2140083B0284688472D68002DF9D12046BDE8324072
S2140083C002F04FBE31BD10B508E0427A837AC9B2DA
S2140083D09C1A8C4205DAC91A006851180028F4D194
S2140083E010BD10440844103010BD827AC2F1450317
S2140083F09942A8BFC2F145018A188272C8B2704776
S21400840038B504461546A07AC0F14502954288BFA5
S214008410154620442A4600F006F8A07A2818A072CE
S214008420284632BD32461030FFF77ABE2DE9F042BC
S2140084305FEA000918BF00290BD00C46607AA17AC3
S214008440DBB20F1A9F4206DA591A24684318002C2A
S214008450F4D1002021E0A67A2118301A1944C51A52
S2140084601031EDB24E4609EB020705E0607AA27ABB
S2140084702118151A1031EDB2BE420CD2701987427F
S2140084803CBFBD1BEDB22A463046FFF749FE2468C6
S2140084907619002CEAD1A6EB0900BDE8F082F8B503
S2140084A004460D46164600F031F9B04205D24FF0AC
S2140084B0FF30F2BD24683D44F61B7CB176B1607A8D
S2140084C0A17A0F1AB74288BF374620443A46294653
S2140084D01030FFF717F80028ECD0F2BD0020F2BDF0
S2140084E02DE9F84F06460D46924600F00FF9044671
S2140084F0284600F00BF95445A8BF504507DA8442D9
S21400850004D0ACBF01204FF0FF3034E0A246002478
S214008510A1460027A04609E0A4EB0B04A7EB0B0737
S214008520D944D844AAEB0B0AE4B2FFB25FFA8AF049
S21400853008B33CB9707AB17A0C1A30443668E4B2A3
S21400854000F110093FB9687AA97A0F1A28182D6821
S214008550FFB200F11008A346BC42C8BFBB465FFA94
S2140085608AFADA4538BFD3465A4641464846FEF7A9
S214008570C9FF0028D0D0BDE8F28F38B5044603E026
S2140085800568FFF7EAFE256020680028F8D131BDAF
S21400859000B9704710B5016821B90022026008468C
S2140085A010BD026003681A68002AF6D09468C4F307
S2140085B04004002CF5D000241C60EFE738B50446D4
S2140085C0607A884202D3401A607213E0A27AC2F13F
S2140085D04503C3188B420FDB121A0D1A23185819BD
S2140085E003F11001103002F03FFD00206072A07A07
S2140085F02818A072012032BD002032BD38B50446CE
S2140086000D46FFF7DBFF08B1204632BD6068FFF776
S21400861026FE28B1046045218172C5F145014172EC
S21400862032BDF8B504460D46607AA17A0A1A081AD1
S214008630561B8542B6B204DA6068FFF710FE0700E4
S21400864001D10020F2BD607A2044284400F11001D8
S214008650787A3844FFF7E6FEB87A3018B872A07A0F
S214008660801BA0722068386027600120F2BD10B51C
S2140086700C46002818BF002C07D0617AA27A837AAD
S214008680521AC3F14503934201DA002010BD21447B
S2140086901031FFF7B5FE2046FFF75FFE012010BD44
S2140086A0F8B504460F4626680020354605E0B07A41
S2140086B0717A381A0F1830463668F9B269B166B161
S2140086C0B07A717AFFB2401A8742F0DA39463046FD
S2140086D0FFF7A7FF0028EAD1F2BD08B1002101602C
S2140086E026602846F2BD016821B10A6802600020B3
S2140086F0086001E00022026008467047016819B170
S2140087000A680260084628E601607047002104E017
S214008710827A8918427A0068891A0028F8D10846B1
S2140087207047026812B90160704702461068002858
S214008730FBD1116070472DE9F84304000D4618BFC1
S214008740002D164600D00EB9002022E0A14600E01B
S2140087508146D9F800000028FAD15FEA09083746B2
S21400876005D1617A60680022FFF726FD8046B8F1E1
S214008770000F0DD03A4629464046FFF741FE3F1A05
S214008780C8451CBFC9F80080C146002F0544E8D183
S214008790F01BBDE8F28338B505680C4615B90460D1
S2140087A031BD054628680028FBD1206818B1204650
S2140087B000F054F803E02846FFF759FF00B92C6094
S2140087C031BD026802B10A60016070470A0001D13B
S2140087D070471A461368002BFBD1036813600160CC
S2140087E0704738B504460D4604E06D1A01682160EE
S2140087F0FFF7B3FDE8B250B1206840B1427A817A03
S214008800891A89B2EDB28D42EFDAA918417231BDEC
S21400881070B504460D46206810B970BD0020306063
S214008820E8B2D0B12068002817D0002601E006463E
S214008830084601680029FAD1417A827AEDB2531AC5
S2140088409D4202DA511B817270BDAA1A8D18FFF77D
S21400885084FD002EE2D10020206070BD70B5044675
S21400886043E0A17A607AC1F145021518ADB2002D39
S2140088703AD002000DD00A1A204400F1100104F18B
S214008880100002F0F1FBA07A617A401AA072002074
S2140088906072206840B38168C1F3400121BB417A11
S2140088A0827AA37A0844521A00F11001607A92B2D2
S2140088B02E4695422044C8BF16461844FFF7B2FD20
S2140088C0A07A3018A072AD1B2068417A71184172E8
S2140088D0ADB22068817A427A891A03D10168216094
S2140088E0FFF73BFD002DD4D12468002CB9D170BD14
S2140088F02DE9FB4781B00025019800950028904699
S21400890047D00646A946AA46002423E0B9F1000F40
S214008910FFB20DD101989DF8081040680022FFF7BD
S2140089204BFC5FEA00092ED049466846FFF7F9FE81
S214008930707A3044001900F110013A464846FFF7B5
S2140089405FFDBA445FFA8AFA3C19C245E4B204BF36
S214008950A946AA46707AB17A0A1A94420EDA121B0F
S21400896013464245C8BF4346A8EB0A07BB42CDDACA
S2140089704245AEBF4746081A071BC7E73668002EB3
S214008980C2D1009D04E0009810B16846FFF7F5FDDF
S214008990284604B0BDE8F0870F480E49006809680D
S2140089A040EA01200D49096840EA0140704710B5C9
S2140089B0044602F052FB06490A6822600C60BDE8D5
S2140089C0104002F04EBB0000100000203A120020BB
S2140089D0740500207C050020780500208005002016
S2140089E062F30F2262F31F42401810F0030308D010
S2140089F0C91A1FD3DB0748BF00F8012D28BF20F88F
S214008A00022D130030B414461546103928BF20E94D
S214008A103C00FAD8490728BF20E90C0048BF40F8B8
S214008A20042D890028BF20F8022D48BF00F8012D2C
S214008A3030BC7047C91818BF00F8012DCB0728BFF7
S214008A4000F8012D7047FEE770B51446C91C4FF6B6
S214008A50FC721140C91C02EA0105284901EB001608
S214008A600020274935807480F06004FB05F0096813
S214008A708847706015FB04F1318189B2706800F098
S214008A8041F8002007E0716800FB05F21144F26827
S214008A900A60F160401CA042F5DB748070BD184A85
S214008AA0116050600101154802F01ABB134901EB32
S214008AB00011C86820B10268CA604A88521E4A80FF
S214008AC070470E4901EB00104088C0B270470B4A51
S214008AD002EB0010C2680A60C1604188491C4180F0
S214008AE07047000105490A5A2AB10A18085A12891D
S214008AF092FBF0F0704700207047000058040020FA
S214008B006C0500200022FFF76FBFFEE70188491CB6
S214008B108AB202B9012101800088704710B5044668
S214008B20012000F0F0FADFF82C0804600020BDE811
S214008B301040E8E2DFF81C0800210160C160016116
S214008B40816141614FF6FF7181847047DFF8041838
S214008B50C2784A6042F2130382889A4200D0704775
S214008B6000B583B082788DF802208088ADF80400C6
S214008B7001F12400FFF7CAFFADF800006A4606219F
S214008B80DFF8D40700F0BBFE07BD70B584B005461D
S214008B90DFF8C007A978DFF8C0474160B5F80310D2
S214008BA0103942D04FF47E72891A3ED040F2FB72E2
S214008BB0891A3AD040F2FE32891A0FD0083921D0ED
S214008BC04FF47F72891A31D040F60942891A75D05F
S214008BD011393BD01439012938D94CE00A2000F06D
S214008BE0F2FE00286AD0B5F8071041800246A9793F
S214008BF00170697A0171A98901816989C1804FF480
S214008C0083710FE00622A91D1C30FFF789FA0620A3
S214008C1000F0D9FE060051D00622A91DFFF780FA03
S214008C2032460821204600F01DFE7FBD68798DF88B
S214008C300900E888FFF7F3F800B1C07F8DF8080058
S214008C4002AA287A8DF80A000B2134E06879010020
S214008C5014BF40F400700020009042F21F01B5F8E7
S214008C60030088420CBFE8880020ADF804006A467E
S214008C7040F202311FE069798DF8021040F66D422D
S214008C80B5F80310ADF80410B5F80310891A09D02A
S214008C9041F29832891A05D0891F012984BF2A39E2
S214008CA0042903D82430FFF731FF00E0808CADF8AC
S214008CB000006A460621204600F021FE7FBD2DE911
S214008CC0F04E044682B0A07801284FF0FF0A00F06C
S214008CD08C8002282ED0032876D0052800F0C2808B
S214008CE0062800F0CD80072800F0F1800C2800F060
S214008CF0D580122800F0DC80132840F0FB800C2082
S214008D0000F061FE060000F0F580E078B07086F8AE
S214008D1001A0062220797072611DF01CFFF700FA90
S214008D204FF0FF3030700020F0723046BDE8F64E4F
S214008D3001F0D4B8E6784FF0000B11E000F0DCF854
S214008D405FFA80F9EDB2B542F8DB0BEB0900204480
S214008D500BF1010B90F904003870384601F0BEF8AC
S214008D60B3454FDA2B2000F02EFE07004AD004EB66
S214008D700B0087F802A006220079787000250BEB1E
S214008D800600204400797872700002FB0B00204435
S214008D90011DF81CFFF7C4F90BEBC6002044007950
S214008DA0F87206EBC60001E000F0A6F85FFA80F95C
S214008DB0EDB25D45F8DB04EB0900FA7A011D07F118
S214008DC00C00FFF7ADF9BDE7A088FFF728F8020012
S214008DD018D0E078002815D102F14800E18801801B
S214008DE061894180218981807FE0E079A17951B94C
S214008DF0010018BF012104F10800FFF726F85FEA1A
S214008E00000A0BD176E0014604F1080001F04BFCA5
S214008E105FEA000A6ED002208AF82E000AF11006D9
S214008E20E07878B9A1885046FEF7A0FFE089308741
S214008E300021608A7087208AB0875046BDE8FC4EC5
S214008E4001F0C3BC00203070E078010014BF40F48D
S214008E5000710021504601F0B8FC5046BDE8F64EC1
S214008E60FEF787BFB4F80300FEF7D9FF010041D034
S214008E70B4F80D10621D02B0BDE8F04E01F0CBBF95
S214008E80B4F80B000090B4F80930B4F80720B4F832
S214008E900510B4F8030000F010FC2BE0A088FEF7E5
S214008EA0BEFF010026D0A179BDE8FC4E00F0A2BFAF
S214008EB0E078E379B4F80520010014BF40F40071AF
S214008EC00021207902B0BDE8F04E01F023B9B4F8D5
S214008ED00300FEF7A4FF02001EBFB4F80500B2F8B8
S214008EE04E10814206D0A2F84E001046BDE8F64E5F
S214008EF000F055BFBDE8F38E05EBC60020446D1CA0
S214008F0000794844704738B505462878032846D087
S214008F10052831D0082815D00E2806D00F2808D0EE
S214008F2030280AD03E2865D031BD2846BDE83240FC
S214008F302BE62846BDE8324008E600F060F804005C
S214008F405CD00EE000F05BF8040057D0697994F826
S214008F503000002914BF40F0010000F0FE0084F845
S214008F603000A878010014BF40F4007100212046AC
S214008F70BDE8344001F09ABC00F041F804003DD052
S214008F800020207440F6FF7020846879010014BF2A
S214008F9040F400710021204601F002FC25E010217B
S214008FA0681DFEF752FF040028D0A87890B9B5F8DF
S214008FB003102046FEF7DAFEE87A28B194F830006F
S214008FC040F0010084F830002046BDE8344000211F
S214008FD001F0FBBB00202074A878010014BF40F409
S214008FE000710021204601F0F0FB2046BDE832402B
S214008FF0FEF7BFBE2846BDE8324060E631BDB5F894
S2140090000300FEF70CBF0146DFF85003FFF789BBED
S214009010DFF84003C168002906BF40690028012028
S2140090207047DFF83013CA680020002A1CBF01F121
S2140090300C00FFF7ADBA704780B528B102F054F8BF
S214009040BDE8024002F0E6B801BD10B502F067F8D0
S214009050040009D0607A20441030FFF754FF204601
S214009060BDE81040FFF779B9FFF7DBFF18B1BDE8A0
S214009070104000F09DBD10BD80B5002141F20900F2
S21400908002F034F800B99AE29CE280B510B10228EA
S21400909018D001BD042142F2240002F027F820B9BE
S2140090A0BDE80240012039E501BDFB21A0F8031010
S2140090B04FF6FF71A0F80510FFF7BEFFBDE80240AF
S2140090C0022020E002F02BF80028EDD0417A01447F
S2140090D00A7C0E2AE8D1897C9E4A01295160E3DB8E
S2140090E0FFF73BF9DCE710B1022801D07047C3E771
S2140090F014E510B1022805D07047002203219648D7
S21400910000F0B0BBA1E7934A9549126851F82210C7
S21400911008470220F7E70020F5E770B50446914DB2
S21400912003E00668FFF719F92E60286820B1C168C9
S214009130A142F6D00546F8E784F82D0070BD10B5BC
S2140091400446207C010018BF012802D140F281109D
S21400915010BD032802D100F0A5F90CE0032140F26F
S214009160064001F0C3FF00B95FE200F0ACF913213E
S2140091704171FFF761FF01202074002010BDF2B599
S214009180018C40F6FF72914203D16846FFF7F5F96D
S214009190F1BD0099012208E08B68C86023F0060341
S2140091A043EA42028A60002209680029F4D1009945
S2140091B06C48FFF7B6FA30E0FFF7A8FA0446B8683E
S2140091C0FE68C0F3400520F00200B860042138466F
S2140091D0FFF714FA4CF6FF738168C66021F00201AF
S2140091E041EA45018160417A014431F8102FC2F30B
S2140091F00D020A801A4083685B0803F0010383F0BF
S214009200010342EA03320A80C2680B88128C4C8043
S21400921062F30B030B8002F003F801F07DFF0700FA
S214009220CAD1F1BD38B50446062142F2050001F068
S2140092305DFF050001D1002032BD06222146E81C54
S214009240FEF76EFF2846FFF7F7FEBDE832407DE0EA
S2140092502DE9F0410E4617469846434984B01CC98E
S2140092600546684619211CC042F2360001F03EFF52
S214009270040008BF00202AD0E5703DF81800A08042
S214009280A671300AE071677200202072380AA07258
S2140092900020E0720D9820730A9860730E9860752F
S2140092A07F20A0750120E0750020A0760F98E0765C
S2140092B00B98A0730C9921B1062204F10F00FEF75B
S2140092C02FFF2046FFF7B8FE2848FFF71FFC04B024
S2140092D0BDE8F08101F00AFFBDE80240ACE670B5DB
S2140092E004460D46072142F2350001F0FFFE060057
S2140092F001D1002070BD00F034F93046FFF79CFE27
S214009300BDE8704022E0F8B500F041F842F23700C0
S21400931001F0ECFE070001D10020F2BD00F03DF8A0
S21400932038460FE0A0F80550A0F80760A0F80970CE
S2140093300699A0F80B100021A0F80D104FF6FF714B
S214009340A0F80F10FFF778FEBDE8F2400748FFF7D9
S214009350DDBB0000EC09002010060020F809002004
S214009360B4590000FC090020A85900000E0A00208D
S214009370F8B500F00CF842F2380001F0B7FE07002E
S21400938001D10020F2BD00F008F83846DAE70D46B5
S2140093900446291D1646C9B2704703203871FC7072
S2140093A000207871BD712A463146F81DFEF7B8BE1A
S2140093B0F8B500F021F842F2390001F097FE50B1FE
S2140093C001210171C570310AC1714471390A4172B7
S2140093D086710772B6E7F2BDF8B500F00DF842F2F6
S2140093E00B0001F083FE30B1C4708580C680077222
S2140093F006994172A6E7F2BD04460D4616461F467C
S2140094000721704738B504460D46022142F20C008B
S21400941001F06CFE30B1C4700571FFF70DFEBDE8BB
S214009420324093E732BD2DE9F843814609F1100634
S214009430032030700D4601201446B0770A9A099929
S2140094409846484600F014FA192142F20D0001F041
S2140094504DFE070008BF4FF4C17021D0C820A7F802
S2140094600300A7F8050006220020F87109F1110193
S214009470F079387207F10900FEF752FEB07B01283A
S21400948018BF0020F8733D827C82A7F814800898E5
S214009490F882002038837C833846FFF7CDFD002015
S2140094A0BDE8F28380B5002142F20E0012E7F8B55F
S2140094B000F00FF942F2130001F018FE10B100F0B0
S2140094C002F82FE7F2BD218CA0F8031070472DE9B3
S2140094D0F04100F067F898461C2142F2190001F0AE
S2140094E005FE070008BF4FF4C17013D0208CA7F804
S2140094F0030008222946781DFEF712FEA7F80D6025
S2140095001022414607F10F00FEF70AFE3846FFF725
S21400951093FD0020BDE8F08170B50D0004460AD129
S214009520022142F21B0001F0E1FD060012D0208C61
S214009530A6F803000EE0122142F21A0001F0D6FD52
S214009540060007D0208CA6F8030010222946701DBE
S214009550FEF7E6FD01E000F004F83046BDE8704096
S2140095606AE5F47006222946301DFEF7D9BD70B5AF
